S0230000646973636F6D666F72745F696E6465785F6D6561735F4170705F312E737265633B
S11300000EC028C027C026C025C045C123C022C0B9
S113001021C020C01FC01EC01DC01CC01BC0112495
S11300201FBECFE5D2E0DEBFCDBF10E0A0E6B0E05A
S1130030EAE9F5E002C005900D92A436B107D9F7BC
S113004020E0A4E6B0E001C01D92A636B207E1F7B5
S1130050FBD1A1C2D5CF00C000C000000895BC9858
S1130060BB98C498C3980895BC9AF5DF13D008953B
S1130070BB9AF1DFBC98EFDFBB98EDDFBC9AEBDFF6
S113008009D00895BB9ABC9AE6DFBB98E4DFBC981C
S1130090E2DF08950894881F01C0880F59F0BB9AC5
S11300A018F40000BC9802C0BC9A00C0D4DFBB980E
S11300B0D2DFF3CFBB9ABC98CEDFBB98B39BFECF05
S11300C08827B49981E0C7DF99270895882701C05C
S11300D081E071E0BB9ABC98BEDFBB98BCDFB39BE8
S11300E0FECF8894B4990894771FA0F7BB9A813007
S11300F011F0BC9801C0BC9AAEDFBB98B39BFECF95
S1130100AADF872F9927089581E7AEDFDFDFBACF13
S11301100F931F93CF93DF9380E7A6DF8CEABADFB8
S113012083E3B8DF80E0B6DFADDF8FE19EE40197C3
S1130130F1F700C0000081E797DFCADFC9DFC82FED
S1130140C7DFC6DF182FC4DF082FC2DFD82FBEDFFA
S113015099DF8C2F90E0880F991F212F221F2227CF
S1130160221F822B64E670E08DD1C92FC6958D2F96
S113017090E0A0E0B0E0902B1F70BC01CD01812B7A
S113018020ED37E040E050E08ED1AB01BC0134E11A
S113019076956795579547953A95D1F7445F5140C1
S11301A0610971094D3D95E059076105710520F01C
S11301B04BED55E060E070E090E08C2F642F752FDC
S11301C0DF91CF911F910F910895CF93C82F8CE7A2
S11301D04BDF80E85FDF8C2F5DDFCF9153CF0F9330
S11301E01F93CF93DF93C82F8B01D42F8CE73CDF71
S11301F0DD2349F080E84EDF8C2F80684BDF81E2FD
S11302008A95F1F7000080E445DFE80189918823AD
S113021011F040DFFBCFDF91CF911F910F9132CFCF
S11302201EDF8FE097E20197F1F700C0000088E33A
S1130230CCDF9AE09A95F1F789E3C7DF8AE08A95E3
S1130240F1F784E1C2DF9AE09A95F1F780E7BDDF28
S11302508AE08A95F1F786E5B8DF9AE09A95F1F796
S11302608CE6B3DF8FE493EC0197F1F700C0000054
S113027088E3ABDF9AE09A95F1F78CE0A6DF8AE099
S11302808A95F1F781E0A1DF83EF91E00197F1F71F
S113029000C0000008951F920F920FB60F92112410
S11302A04F925F926F927F928F929F92AF92BF9282
S11302B0CF92DF92EF92FF920F931F932F933F936E
S11302C04F935F936F937F938F939F93AF93BF935A
S11302D0EF93FF93CF93DF93CDB7DEB72F97DEBFB6
S11302E0CDBFF894809164009091650001968431AB
S11302F0910528F490936500809364007DC010926A
S1130300650010926400C09A03DF6B017C012B012D
S1130310612C712C23E630E040E050E0C301B201CF
S1130320C2D06C5D774381099109970140E050E0A8
S1130330BAD04B015C0124EA3FE140E050E0C30144
S1130340B201B1D0680D791D8A1D9B1D20E137E2F1
S113035040E050E0C1D0590181E3A81A8EEFB80AF9
S1130360C60199274AE050E08E010F5F1F4FB80184
S1130370D5D0F80101900020E9F7CF010397801749
S1130380910731F48A818B8389818A8380E389830D
S11303908B818C838EE2982E9B828FED8D831E82BF
S11303A041E0B80180E01BDF4AE050E0BE01645F39
S11303B07F4F8E2D90E0B2D085E28E871F8640E07D
S11303C0BE01645F7F4F80E00ADF4AE050E0BE0177
S11303D0695F7F4FC501A2D089858A8799861B866C
S11303E041E060E670E080E4FADE40E0BE01695F6F
S11303F07F4F80E4F4DEC09878942F960FB6F8947B
S1130400DEBF0FBECDBFDF91CF91FF91EF91BF91C2
S1130410AF919F918F917F916F915F914F913F9198
S11304202F911F910F91FF90EF90DF90CF90BF908D
S1130430AF909F908F907F906F905F904F900F90B0
S11304400FBE0F901F90189517BA8FE388BB47987B
S11304508BE080BDB89AC09AE3DE56DE1092650048
S1130460109264001ABC85E083BF82E089BF78944F
S113047085B7877E85BF85B7806285BF889585B738
S11304808F7DF8CF0024552704C0080E591F880F0C
S1130490991F009729F076956795B8F37105B9F718
S11304A0802D952F0895EE27FF27AA27BB2708C084
S11304B0A20FB31FE41FF51F220F331F441F551F44
S11304C0969587957795679598F37040A9F7009767
S11304D099F7BD01CF010895A1E21A2EAA1BBB1BF7
S11304E0FD010DC0AA1FBB1FEE1FFF1FA217B307FC
S11304F0E407F50720F0A21BB30BE40BF50B661F12
S1130500771F881F991F1A9469F7609570958095D5
S113051090959B01AC01BD01CF0108954532510571
S113052018F4423008F004C0FB011082CB01089596
S1130530BB274A3031F4992322F4BDE2909581958A
S11305409F4F01C0BB27FB015527AA27880F991F7E
S1130550AA1FA41710F0A41B83955051B9F7A05DEE
S1130560AA3308F0A95DA193009779F7B111B1936B
S11305701192CB0100C0DC01FC01672F719177233C
S1130580E1F7329704C07C916D9370836291AE174A
S10D0590BF07C8F30895F894FFCFE5
S107059A44493A0092
S9030000FC
